{"project/contracts/WalaTokenFactory.sol":{"WalaTokenFactory":{"abi":[{"inputs":[],"name":"EmptyName","type":"error"},{"inputs":[],"name":"EmptySymbol","type":"error"},{"inputs":[],"name":"InvalidOwner","type":"error"},{"inputs":[],"name":"InvalidSupply","type":"error"},{"anonymous":false,"inputs":[{"indexed":true,"internalType":"address","name":"creator","type":"address"},{"indexed":true,"internalType":"address","name":"owner","type":"address"},{"indexed":true,"internalType":"address","name":"token","type":"address"},{"indexed":false,"internalType":"string","name":"name","type":"string"},{"indexed":false,"internalType":"string","name":"symbol","type":"string"},{"indexed":false,"internalType":"uint256","name":"wholeSupply","type":"uint256"},{"indexed":false,"internalType":"string","name":"metadataURI","type":"string"}],"name":"TokenCreated","type":"event"},{"inputs":[{"internalType":"string","name":"name_","type":"string"},{"internalType":"string","name":"symbol_","type":"string"},{"internalType":"uint256","name":"wholeSupply_","type":"uint256"},{"internalType":"address","name":"owner_","type":"address"},{"internalType":"string","name":"metadataURI_","type":"string"}],"name":"createToken","outputs":[{"internalType":"address","name":"token","type":"address"}],"stateMutability":"nonpayable","type":"function"},{"inputs":[{"internalType":"address","name":"creator_","type":"address"}],"name":"getTokensByCreator","outputs":[{"internalType":"address[]","name":"","type":"address[]"}],"stateMutability":"view","type":"function"}],"evm":{"bytecode":{"linkReferences":{},"object":"608060405234801561000f575f80fd5b506114278061001d5f395ff3fe608060405234801562000010575f80fd5b506004361062000038575f3560e01c8063a1c1b328146200003c578063d5c712751462000070575b5f80fd5b620000536200004d366004620002e8565b62000096565b6040516001600160a01b0390911681526020015b60405180910390f35b6200008762000081366004620003a3565b62000203565b604051620000679190620003c6565b5f878103620000b857604051632ef1310560e01b815260040160405180910390fd5b5f869003620000da57604051630cc613fb60e11b815260040160405180910390fd5b6001600160a01b03841662000102576040516349e27cff60e01b815260040160405180910390fd5b845f0362000123576040516315ae672760e01b815260040160405180910390fd5b5f89898989888a89896040516200013a9062000276565b6200014d9897969594939291906200043c565b604051809103905ff08015801562000167573d5f803e3d5ffd5b50335f818152602081815260408083208054600181018255908452919092200180546001600160a01b0319166001600160a01b038581169182179092559151939550859450909290881691907f50345850dc9ebe5553d1d7a9c544ee2b24bb2b1a77c0558b15d6a444f901d39190620001ee908f908f908f908f908f908e908e90620004a2565b60405180910390a45098975050505050505050565b6001600160a01b0381165f90815260208181526040918290208054835181840281018401909452808452606093928301828280156200026a57602002820191905f5260205f20905b81546001600160a01b031681526001909101906020018083116200024b575b50505050509050919050565b610efa80620004f883390190565b5f8083601f84011262000295575f80fd5b50813567ffffffffffffffff811115620002ad575f80fd5b602083019150836020828501011115620002c5575f80fd5b9250929050565b80356001600160a01b0381168114620002e3575f80fd5b919050565b5f805f805f805f8060a0898b03121562000300575f80fd5b883567ffffffffffffffff8082111562000318575f80fd5b620003268c838d0162000284565b909a50985060208b01359150808211156200033f575f80fd5b6200034d8c838d0162000284565b909850965060408b013595508691506200036a60608c01620002cc565b945060808b013591508082111562000380575f80fd5b506200038f8b828c0162000284565b999c989b5096995094979396929594505050565b5f60208284031215620003b4575f80fd5b620003bf82620002cc565b9392505050565b602080825282518282018190525f9190848201906040850190845b81811015620004085783516001600160a01b031683529284019291840191600101620003e1565b50909695505050505050565b81835281816020850137505f828201602090810191909152601f909101601f19169091010190565b60a081525f6200045160a083018a8c62000414565b82810360208401526200046681898b62000414565b6001600160a01b038816604085015260608401879052838103608085015290506200049381858762000414565b9b9a5050505050505050505050565b608081525f620004b760808301898b62000414565b8281036020840152620004cc81888a62000414565b90508560408401528281036060840152620004e981858762000414565b9a995050505050505050505056fe60e060405234801562000010575f80fd5b5060405162000efa38038062000efa833981016040819052620000339162000320565b8484600362000043838262000461565b50600462000052828262000461565b5050506001600160a01b0383166200007d576040516349e27cff60e01b815260040160405180910390fd5b815f036200009e576040516315ae672760e01b815260040160405180910390fd5b336080526001600160a01b03831660a05260c08290526005620000c2828262000461565b50620000e883620000d66012600a62000638565b620000e290856200064f565b620000f3565b50505050506200067f565b6001600160a01b038216620001225760405163ec442f0560e01b81525f60048201526024015b60405180910390fd5b6200012f5f838362000133565b5050565b6001600160a01b03831662000161578060025f82825462000155919062000669565b90915550620001d39050565b6001600160a01b0383165f9081526020819052604090205481811015620001b55760405163391434e360e21b81526001600160a01b0385166004820152602481018290526044810183905260640162000119565b6001600160a01b0384165f9081526020819052604090209082900390555b6001600160a01b038216620001f1576002805482900390556200020f565b6001600160a01b0382165f9081526020819052604090208054820190555b816001600160a01b0316836001600160a01b03167fddf252ad1be2c89b69c2b068fc378daa952ba7f163c4a11628f55a4df523b3ef836040516200025591815260200190565b60405180910390a3505050565b634e487b7160e01b5f52604160045260245ffd5b5f82601f83011262000286575f80fd5b81516001600160401b0380821115620002a357620002a362000262565b604051601f8301601f19908116603f01168101908282118183101715620002ce57620002ce62000262565b81604052838152602092508683858801011115620002ea575f80fd5b5f91505b838210156200030d5785820183015181830184015290820190620002ee565b5f93810190920192909252949350505050565b5f805f805f60a0868803121562000335575f80fd5b85516001600160401b03808211156200034c575f80fd5b6200035a89838a0162000276565b9650602088015191508082111562000370575f80fd5b6200037e89838a0162000276565b604089015190965091506001600160a01b03821682146200039d575f80fd5b60608801516080890151929550935080821115620003b9575f80fd5b50620003c88882890162000276565b9150509295509295909350565b600181811c90821680620003ea57607f821691505b6020821081036200040957634e487b7160e01b5f52602260045260245ffd5b50919050565b601f8211156200045c575f81815260208120601f850160051c81016020861015620004375750805b601f850160051c820191505b81811015620004585782815560010162000443565b5050505b505050565b81516001600160401b038111156200047d576200047d62000262565b62000495816200048e8454620003d5565b846200040f565b602080601f831160018114620004cb575f8415620004b35750858301515b5f19600386901b1c1916600185901b17855562000458565b5f85815260208120601f198616915b82811015620004fb57888601518255948401946001909101908401620004da565b50858210156200051957878501515f19600388901b60f8161c191681555b5050505050600190811b01905550565b634e487b7160e01b5f52601160045260245ffd5b600181815b808511156200057d57815f190482111562000561576200056162000529565b808516156200056f57918102915b93841c939080029062000542565b509250929050565b5f82620005955750600162000632565b81620005a357505f62000632565b8160018114620005bc5760028114620005c757620005e7565b600191505062000632565b60ff841115620005db57620005db62000529565b50506001821b62000632565b5060208310610133831016604e8410600b84101617156200060c575081810a62000632565b6200061883836200053d565b805f19048211156200062e576200062e62000529565b0290505b92915050565b5f6200064860ff84168362000585565b9392505050565b808202811582820484141762000632576200063262000529565b8082018082111562000632576200063262000529565b60805160a05160c051610851620006a95f395f6101b301525f61017d01525f60d401526108515ff3fe608060405234801561000f575f80fd5b50600436106100cb575f3560e01c806329ba7bb21161008857806370a082311161006357806370a08231146101d557806395d89b41146101fd578063a9059cbb14610205578063dd62ed3e14610218575f80fd5b806329ba7bb214610178578063313ce5671461019f5780633ff2ad7c146101ae575f80fd5b806302d05d3f146100cf57806303ee438c1461011357806306fdde0314610128578063095ea7b31461013057806318160ddd1461015357806323b872dd14610165575b5f80fd5b6100f67f000000000000000000000000000000000000000000000000000000000000000081565b6040516001600160a01b0390911681526020015b60405180910390f35b61011b610250565b60405161010a91906106ac565b61011b6102dc565b61014361013e366004610712565b61036c565b604051901515815260200161010a565b6002545b60405190815260200161010a565b61014361017336600461073a565b610385565b6100f67f000000000000000000000000000000000000000000000000000000000000000081565b6040516012815260200161010a565b6101577f000000000000000000000000000000000000000000000000000000000000000081565b6101576101e3366004610773565b6001600160a01b03165f9081526020819052604090205490565b61011b6103a8565b610143610213366004610712565b6103b7565b610157610226366004610793565b6001600160a01b039182165f90815260016020908152604080832093909416825291909152205490565b6005805461025d906107c4565b80601f0160208091040260200160405190810160405280929190818152602001828054610289906107c4565b80156102d45780601f106102ab576101008083540402835291602001916102d4565b820191905f5260205f20905b8154815290600101906020018083116102b757829003601f168201915b505050505081565b6060600380546102eb906107c4565b80601f0160208091040260200160405190810160405280929190818152602001828054610317906107c4565b80156103625780601f1061033957610100808354040283529160200191610362565b820191905f5260205f20905b81548152906001019060200180831161034557829003601f168201915b5050505050905090565b5f336103798185856103c4565b60019150505b92915050565b5f336103928582856103d6565b61039d858585610457565b506001949350505050565b6060600480546102eb906107c4565b5f33610379818585610457565b6103d183838360016104b4565b505050565b6001600160a01b038381165f908152600160209081526040808320938616835292905220545f19811015610451578181101561044357604051637dc7a0d960e11b81526001600160a01b038416600482015260248101829052604481018390526064015b60405180910390fd5b61045184848484035f6104b4565b50505050565b6001600160a01b03831661048057604051634b637e8f60e11b81525f600482015260240161043a565b6001600160a01b0382166104a95760405163ec442f0560e01b81525f600482015260240161043a565b6103d1838383610586565b6001600160a01b0384166104dd5760405163e602df0560e01b81525f600482015260240161043a565b6001600160a01b03831661050657604051634a1406b160e11b81525f600482015260240161043a565b6001600160a01b038085165f908152600160209081526040808320938716835292905220829055801561045157826001600160a01b0316846001600160a01b03167f8c5be1e5ebec7d5bd14f71427d1e84f3dd0314c0f7b2291e5b200ac8c7c3b9258460405161057891815260200190565b60405180910390a350505050565b6001600160a01b0383166105b0578060025f8282546105a591906107fc565b909155506106209050565b6001600160a01b0383165f90815260208190526040902054818110156106025760405163391434e360e21b81526001600160a01b0385166004820152602481018290526044810183905260640161043a565b6001600160a01b0384165f9081526020819052604090209082900390555b6001600160a01b03821661063c5760028054829003905561065a565b6001600160a01b0382165f9081526020819052604090208054820190555b816001600160a01b0316836001600160a01b03167fddf252ad1be2c89b69c2b068fc378daa952ba7f163c4a11628f55a4df523b3ef8360405161069f91815260200190565b60405180910390a3505050565b5f6020808352835180828501525f5b818110156106d7578581018301518582016040015282016106bb565b505f604082860101526040601f19601f8301168501019250505092915050565b80356001600160a01b038116811461070d575f80fd5b919050565b5f8060408385031215610723575f80fd5b61072c836106f7565b946020939093013593505050565b5f805f6060848603121561074c575f80fd5b610755846106f7565b9250610763602085016106f7565b9150604084013590509250925092565b5f60208284031215610783575f80fd5b61078c826106f7565b9392505050565b5f80604083850312156107a4575f80fd5b6107ad836106f7565b91506107bb602084016106f7565b90509250929050565b600181811c908216806107d857607f821691505b6020821081036107f657634e487b7160e01b5f52602260045260245ffd5b50919050565b8082018082111561037f57634e487b7160e01b5f52601160045260245ffdfea26469706673582212205b274b5562fdc6ed141c11d72421d7711ef02aa8796c166ecf4cf759fb15d98464736f6c63430008140033a2646970667358221220c98712dedaf5a38f55be38b59983eaa0364f8e955338e27f6c7ac17868a1a5ed64736f6c63430008140033","opcodes":"PUSH1 0x80 PUSH1 0x40 MSTORE CALLVALUE DUP1 ISZERO PUSH2 0xF JUMPI PUSH0 DUP1 REVERT JUMPDEST POP PUSH2 0x1427 DUP1 PUSH2 0x1D PUSH0 CODECOPY PUSH0 RETURN INVALID PUSH1 0x80 PUSH1 0x40 MSTORE CALLVALUE DUP1 ISZERO PUSH3 0x10 JUMPI PUSH0 DUP1 REVERT JUMPDEST POP PUSH1 0x4 CALLDATASIZE LT PUSH3 0x38 JUMPI PUSH0 CALLDATALOAD PUSH1 0xE0 SHR DUP1 PUSH4 0xA1C1B328 EQ PUSH3 0x3C JUMPI DUP1 PUSH4 0xD5C71275 EQ PUSH3 0x70 JUMPI JUMPDEST PUSH0 DUP1 REVERT JUMPDEST PUSH3 0x53 PUSH3 0x4D CALLDATASIZE PUSH1 0x4 PUSH3 0x2E8 JUMP JUMPDEST PUSH3 0x96 JUMP JUMPDEST PUSH1 0x40 MLOAD PUSH1 0x1 PUSH1 0x1 PUSH1 0xA0 SHL SUB SWAP1 SWAP2 AND DUP2 MSTORE PUSH1 0x20 ADD JUMPDEST PUSH1 0x40 MLOAD DUP1 SWAP2 SUB SWAP1 RETURN JUMPDEST PUSH3 0x87 PUSH3 0x81 CALLDATASIZE PUSH1 0x4 PUSH3 0x3A3 JUMP JUMPDEST PUSH3 0x203 JUMP JUMPDEST PUSH1 0x40 MLOAD PUSH3 0x67 SWAP2 SWAP1 PUSH3 0x3C6 JUMP JUMPDEST PUSH0 DUP8 DUP2 SUB PUSH3 0xB8 JUMPI PUSH1 0x40 MLOAD PUSH4 0x2EF13105 PUSH1 0xE0 SHL DUP2 MSTORE PUSH1 0x4 ADD PUSH1 0x40 MLOAD DUP1 SWAP2 SUB SWAP1 REVERT JUMPDEST PUSH0 DUP7 SWAP1 SUB PUSH3 0xDA JUMPI PUSH1 0x40 MLOAD PUSH4 0xCC613FB PUSH1 0xE1 SHL DUP2 MSTORE PUSH1 0x4 ADD PUSH1 0x40 MLOAD DUP1 SWAP2 SUB SWAP1 REVERT JUMPDEST PUSH1 0x1 PUSH1 0x1 PUSH1 0xA0 SHL SUB DUP5 AND PUSH3 0x102 JUMPI PUSH1 0x40 MLOAD PUSH4 0x49E27CFF PUSH1 0xE0 SHL DUP2 MSTORE PUSH1 0x4 ADD PUSH1 0x40 MLOAD DUP1 SWAP2 SUB SWAP1 REVERT JUMPDEST DUP5 PUSH0 SUB PUSH3 0x123 JUMPI PUSH1 0x40 MLOAD PUSH4 0x15AE6727 PUSH1 0xE0 SHL DUP2 MSTORE PUSH1 0x4 ADD PUSH1 0x40 MLOAD DUP1 SWAP2 SUB SWAP1 REVERT JUMPDEST PUSH0 DUP10 DUP10 DUP10 DUP10 DUP9 DUP11 DUP10 DUP10 PUSH1 0x40 MLOAD PUSH3 0x13A SWAP1 PUSH3 0x276 JUMP JUMPDEST PUSH3 0x14D SWAP9 SWAP8 SWAP7 SWAP6 SWAP5 SWAP4 SWAP3 SWAP2 SWAP1 PUSH3 0x43C JUMP JUMPDEST PUSH1 0x40 MLOAD DUP1 SWAP2 SUB SWAP1 PUSH0 CREATE DUP1 ISZERO DUP1 ISZERO PUSH3 0x167 JUMPI RETURNDATASIZE PUSH0 DUP1 RETURNDATACOPY RETURNDATASIZE PUSH0 REVERT JUMPDEST POP CALLER PUSH0 DUP2 DUP2 MSTORE PUSH1 0x20 DUP2 DUP2 MSTORE PUSH1 0x40 DUP1 DUP4 KECCAK256 DUP1 SLOAD PUSH1 0x1 DUP2 ADD DUP3 SSTORE SWAP1 DUP5 MSTORE SWAP2 SWAP1 SWAP3 KECCAK256 ADD DUP1 SLOAD PUSH1 0x1 PUSH1 0x1 PUSH1 0xA0 SHL SUB NOT AND PUSH1 0x1 PUSH1 0x1 PUSH1 0xA0 SHL SUB DUP6 DUP2 AND SWAP2 DUP3 OR SWAP1 SWAP3 SSTORE SWAP2 MLOAD SWAP4 SWAP6 POP DUP6 SWAP5 POP SWAP1 SWAP3 SWAP1 DUP9 AND SWAP2 SWAP1 PUSH32 0x50345850DC9EBE5553D1D7A9C544EE2B24BB2B1A77C0558B15D6A444F901D391 SWAP1 PUSH3 0x1EE SWAP1 DUP16 SWAP1 DUP16 SWAP1 DUP16 SWAP1 DUP16 SWAP1 DUP16 SWAP1 DUP15 SWAP1 DUP15 SWAP1 PUSH3 0x4A2 JUMP JUMPDEST PUSH1 0x40 MLOAD DUP1 SWAP2 SUB SWAP1 LOG4 POP SWAP9 SWAP8 POP POP POP POP POP POP POP POP JUMP JUMPDEST PUSH1 0x1 PUSH1 0x1 PUSH1 0xA0 SHL SUB DUP2 AND PUSH0 SWAP1 DUP2 MSTORE PUSH1 0x20 DUP2 DUP2 MSTORE PUSH1 0x40 SWAP2 DUP3 SWAP1 KECCAK256 DUP1 SLOAD DUP4 MLOAD DUP2 DUP5 MUL DUP2 ADD DUP5 ADD SWAP1 SWAP5 MSTORE DUP1 DUP5 MSTORE PUSH1 0x60 SWAP4 SWAP3 DUP4 ADD DUP3 DUP3 DUP1 ISZERO PUSH3 0x26A JUMPI PUSH1 0x20 MUL DUP3 ADD SWAP2 SWAP1 PUSH0 MSTORE PUSH1 0x20 PUSH0 KECCAK256 SWAP1 JUMPDEST DUP2 SLOAD PUSH1 0x1 PUSH1 0x1 PUSH1 0xA0 SHL SUB AND DUP2 MSTORE PUSH1 0x1 SWAP1 SWAP2 ADD SWAP1 PUSH1 0x20 ADD DUP1 DUP4 GT PUSH3 0x24B JUMPI JUMPDEST POP POP POP POP POP SWAP1 POP SWAP2 SWAP1 POP JUMP JUMPDEST PUSH2 0xEFA DUP1 PUSH3 0x4F8 DUP4 CODECOPY ADD SWAP1 JUMP JUMPDEST PUSH0 DUP1 DUP4 PUSH1 0x1F DUP5 ADD SLT PUSH3 0x295 JUMPI PUSH0 DUP1 REVERT JUMPDEST POP DUP2 CALLDATALOAD PUSH8 0xFFFFFFFFFFFFFFFF DUP2 GT ISZERO PUSH3 0x2AD JUMPI PUSH0 DUP1 REVERT JUMPDEST PUSH1 0x20 DUP4 ADD SWAP2 POP DUP4 PUSH1 0x20 DUP3 DUP6 ADD ADD GT ISZERO PUSH3 0x2C5 JUMPI PUSH0 DUP1 REVERT JUMPDEST SWAP3 POP SWAP3 SWAP1 POP JUMP JUMPDEST DUP1 CALLDATALOAD PUSH1 0x1 PUSH1 0x1 PUSH1 0xA0 SHL SUB DUP2 AND DUP2 EQ PUSH3 0x2E3 JUMPI PUSH0 DUP1 REVERT JUMPDEST SWAP2 SWAP1 POP JUMP JUMPDEST PUSH0 DUP1 PUSH0 DUP1 PUSH0 DUP1 PUSH0 DUP1 PUSH1 0xA0 DUP10 DUP12 SUB SLT ISZERO PUSH3 0x300 JUMPI PUSH0 DUP1 REVERT JUMPDEST DUP9 CALLDATALOAD PUSH8 0xFFFFFFFFFFFFFFFF DUP1 DUP3 GT ISZERO PUSH3 0x318 JUMPI PUSH0 DUP1 REVERT JUMPDEST PUSH3 0x326 DUP13 DUP4 DUP14 ADD PUSH3 0x284 JUMP JUMPDEST SWAP1 SWAP11 POP SWAP9 POP PUSH1 0x20 DUP12 ADD CALLDATALOAD SWAP2 POP DUP1 DUP3 GT ISZERO PUSH3 0x33F JUMPI PUSH0 DUP1 REVERT JUMPDEST PUSH3 0x34D DUP13 DUP4 DUP14 ADD PUSH3 0x284 JUMP JUMPDEST SWAP1 SWAP9 POP SWAP7 POP PUSH1 0x40 DUP12 ADD CALLDATALOAD SWAP6 POP DUP7 SWAP2 POP PUSH3 0x36A PUSH1 0x60 DUP13 ADD PUSH3 0x2CC JUMP JUMPDEST SWAP5 POP PUSH1 0x80 DUP12 ADD CALLDATALOAD SWAP2 POP DUP1 DUP3 GT ISZERO PUSH3 0x380 JUMPI PUSH0 DUP1 REVERT JUMPDEST POP PUSH3 0x38F DUP12 DUP3 DUP13 ADD PUSH3 0x284 JUMP JUMPDEST SWAP10 SWAP13 SWAP9 SWAP12 POP SWAP7 SWAP10 POP SWAP5 SWAP8 SWAP4 SWAP7 SWAP3 SWAP6 SWAP5 POP POP POP JUMP JUMPDEST PUSH0 PUSH1 0x20 DUP3 DUP5 SUB SLT ISZERO PUSH3 0x3B4 JUMPI PUSH0 DUP1 REVERT JUMPDEST PUSH3 0x3BF DUP3 PUSH3 0x2CC JUMP JUMPDEST SWAP4 SWAP3 POP POP POP JUMP JUMPDEST PUSH1 0x20 DUP1 DUP3 MSTORE DUP3 MLOAD DUP3 DUP3 ADD DUP2 SWAP1 MSTORE PUSH0 SWAP2 SWAP1 DUP5 DUP3 ADD SWAP1 PUSH1 0x40 DUP6 ADD SWAP1 DUP5 JUMPDEST DUP2 DUP2 LT ISZERO PUSH3 0x408 JUMPI DUP4 MLOAD PUSH1 0x1 PUSH1 0x1 PUSH1 0xA0 SHL SUB AND DUP4 MSTORE SWAP3 DUP5 ADD SWAP3 SWAP2 DUP5 ADD SWAP2 PUSH1 0x1 ADD PUSH3 0x3E1 JUMP JUMPDEST POP SWAP1 SWAP7 SWAP6 POP POP POP POP POP POP JUMP JUMPDEST DUP2 DUP4 MSTORE DUP2 DUP2 PUSH1 0x20 DUP6 ADD CALLDATACOPY POP PUSH0 DUP3 DUP3 ADD PUSH1 0x20 SWAP1 DUP2 ADD SWAP2 SWAP1 SWAP2 MSTORE PUSH1 0x1F SWAP1 SWAP2 ADD PUSH1 0x1F NOT AND SWAP1 SWAP2 ADD ADD SWAP1 JUMP JUMPDEST PUSH1 0xA0 DUP2 MSTORE PUSH0 PUSH3 0x451 PUSH1 0xA0 DUP4 ADD DUP11 DUP13 PUSH3 0x414 JUMP JUMPDEST DUP3 DUP2 SUB PUSH1 0x20 DUP5 ADD MSTORE PUSH3 0x466 DUP2 DUP10 DUP12 PUSH3 0x414 JUMP JUMPDEST PUSH1 0x1 PUSH1 0x1 PUSH1 0xA0 SHL SUB DUP9 AND PUSH1 0x40 DUP6 ADD MSTORE PUSH1 0x60 DUP5 ADD DUP8 SWAP1 MSTORE DUP4 DUP2 SUB PUSH1 0x80 DUP6 ADD MSTORE SWAP1 POP PUSH3 0x493 DUP2 DUP6 DUP8 PUSH3 0x414 JUMP JUMPDEST SWAP12 SWAP11 POP POP POP POP POP POP POP POP POP POP POP JUMP JUMPDEST PUSH1 0x80 DUP2 MSTORE PUSH0 PUSH3 0x4B7 PUSH1 0x80 DUP4 ADD DUP10 DUP12 PUSH3 0x414 JUMP JUMPDEST DUP3 DUP2 SUB PUSH1 0x20 DUP5 ADD MSTORE PUSH3 0x4CC DUP2 DUP9 DUP11 PUSH3 0x414 JUMP JUMPDEST SWAP1 POP DUP6 PUSH1 0x40 DUP5 ADD MSTORE DUP3 DUP2 SUB PUSH1 0x60 DUP5 ADD MSTORE PUSH3 0x4E9 DUP2 DUP6 DUP8 PUSH3 0x414 JUMP JUMPDEST SWAP11 SWAP10 POP POP POP POP POP POP POP POP POP POP JUMP INVALID PUSH1 0xE0 PUSH1 0x40 MSTORE CALLVALUE DUP1 ISZERO PUSH3 0x10 JUMPI PUSH0 DUP1 REVERT JUMPDEST POP PUSH1 0x40 MLOAD PUSH3 0xEFA CODESIZE SUB DUP1 PUSH3 0xEFA DUP4 CODECOPY DUP2 ADD PUSH1 0x40 DUP2 SWAP1 MSTORE PUSH3 0x33 SWAP2 PUSH3 0x320 JUMP JUMPDEST DUP5 DUP5 PUSH1 0x3 PUSH3 0x43 DUP4 DUP3 PUSH3 0x461 JUMP JUMPDEST POP PUSH1 0x4 PUSH3 0x52 DUP3 DUP3 PUSH3 0x461 JUMP JUMPDEST POP POP POP PUSH1 0x1 PUSH1 0x1 PUSH1 0xA0 SHL SUB DUP4 AND PUSH3 0x7D JUMPI PUSH1 0x40 MLOAD PUSH4 0x49E27CFF PUSH1 0xE0 SHL DUP2 MSTORE PUSH1 0x4 ADD PUSH1 0x40 MLOAD DUP1 SWAP2 SUB SWAP1 REVERT JUMPDEST DUP2 PUSH0 SUB PUSH3 0x9E JUMPI PUSH1 0x40 MLOAD PUSH4 0x15AE6727 PUSH1 0xE0 SHL DUP2 MSTORE PUSH1 0x4 ADD PUSH1 0x40 MLOAD DUP1 SWAP2 SUB SWAP1 REVERT JUMPDEST CALLER PUSH1 0x80 MSTORE PUSH1 0x1 PUSH1 0x1 PUSH1 0xA0 SHL SUB DUP4 AND PUSH1 0xA0 MSTORE PUSH1 0xC0 DUP3 SWAP1 MSTORE PUSH1 0x5 PUSH3 0xC2 DUP3 DUP3 PUSH3 0x461 JUMP JUMPDEST POP PUSH3 0xE8 DUP4 PUSH3 0xD6 PUSH1 0x12 PUSH1 0xA PUSH3 0x638 JUMP JUMPDEST PUSH3 0xE2 SWAP1 DUP6 PUSH3 0x64F JUMP JUMPDEST PUSH3 0xF3 JUMP JUMPDEST POP POP POP POP POP PUSH3 0x67F JUMP JUMPDEST PUSH1 0x1 PUSH1 0x1 PUSH1 0xA0 SHL SUB DUP3 AND PUSH3 0x122 JUMPI PUSH1 0x40 MLOAD PUSH4 0xEC442F05 PUSH1 0xE0 SHL DUP2 MSTORE PUSH0 PUSH1 0x4 DUP3 ADD MSTORE PUSH1 0x24 ADD JUMPDEST PUSH1 0x40 MLOAD DUP1 SWAP2 SUB SWAP1 REVERT JUMPDEST PUSH3 0x12F PUSH0 DUP4 DUP4 PUSH3 0x133 JUMP JUMPDEST POP POP JUMP JUMPDEST PUSH1 0x1 PUSH1 0x1 PUSH1 0xA0 SHL SUB DUP4 AND PUSH3 0x161 JUMPI DUP1 PUSH1 0x2 PUSH0 DUP3 DUP3 SLOAD PUSH3 0x155 SWAP2 SWAP1 PUSH3 0x669 JUMP JUMPDEST SWAP1 SWAP2 SSTORE POP PUSH3 0x1D3 SWAP1 POP JUMP JUMPDEST PUSH1 0x1 PUSH1 0x1 PUSH1 0xA0 SHL SUB DUP4 AND PUSH0 SWAP1 DUP2 MSTORE PUSH1 0x20 DUP2 SWAP1 MSTORE PUSH1 0x40 SWAP1 KECCAK256 SLOAD DUP2 DUP2 LT ISZERO PUSH3 0x1B5 JUMPI PUSH1 0x40 MLOAD PUSH4 0x391434E3 PUSH1 0xE2 SHL DUP2 MSTORE PUSH1 0x1 PUSH1 0x1 PUSH1 0xA0 SHL SUB DUP6 AND PUSH1 0x4 DUP3 ADD MSTORE PUSH1 0x24 DUP2 ADD DUP3 SWAP1 MSTORE PUSH1 0x44 DUP2 ADD DUP4 SWAP1 MSTORE PUSH1 0x64 ADD PUSH3 0x119 JUMP JUMPDEST PUSH1 0x1 PUSH1 0x1 PUSH1 0xA0 SHL SUB DUP5 AND PUSH0 SWAP1 DUP2 MSTORE PUSH1 0x20 DUP2 SWAP1 MSTORE PUSH1 0x40 SWAP1 KECCAK256 SWAP1 DUP3 SWAP1 SUB SWAP1 SSTORE JUMPDEST PUSH1 0x1 PUSH1 0x1 PUSH1 0xA0 SHL SUB DUP3 AND PUSH3 0x1F1 JUMPI PUSH1 0x2 DUP1 SLOAD DUP3 SWAP1 SUB SWAP1 SSTORE PUSH3 0x20F JUMP JUMPDEST PUSH1 0x1 PUSH1 0x1 PUSH1 0xA0 SHL SUB DUP3 AND PUSH0 SWAP1 DUP2 MSTORE PUSH1 0x20 DUP2 SWAP1 MSTORE PUSH1 0x40 SWAP1 KECCAK256 DUP1 SLOAD DUP3 ADD SWAP1 SSTORE JUMPDEST DUP2 PUSH1 0x1 PUSH1 0x1 PUSH1 0xA0 SHL SUB AND DUP4 PUSH1 0x1 PUSH1 0x1 PUSH1 0xA0 SHL SUB AND PUSH32 0xDDF252AD1BE2C89B69C2B068FC378DAA952BA7F163C4A11628F55A4DF523B3EF DUP4 PUSH1 0x40 MLOAD PUSH3 0x255 SWAP2 DUP2 MSTORE PUSH1 0x20 ADD SWAP1 JUMP JUMPDEST PUSH1 0x40 MLOAD DUP1 SWAP2 SUB SWAP1 LOG3 POP POP POP JUMP JUMPDEST PUSH4 0x4E487B71 PUSH1 0xE0 SHL PUSH0 MSTORE PUSH1 0x41 PUSH1 0x4 MSTORE PUSH1 0x24 PUSH0 REVERT JUMPDEST PUSH0 DUP3 PUSH1 0x1F DUP4 ADD SLT PUSH3 0x286 JUMPI PUSH0 DUP1 REVERT JUMPDEST DUP2 MLOAD PUSH1 0x1 PUSH1 0x1 PUSH1 0x40 SHL SUB DUP1 DUP3 GT ISZERO PUSH3 0x2A3 JUMPI PUSH3 0x2A3 PUSH3 0x262 JUMP JUMPDEST PUSH1 0x40 MLOAD PUSH1 0x1F DUP4 ADD PUSH1 0x1F NOT SWAP1 DUP2 AND PUSH1 0x3F ADD AND DUP2 ADD SWAP1 DUP3 DUP3 GT DUP2 DUP4 LT OR ISZERO PUSH3 0x2CE JUMPI PUSH3 0x2CE PUSH3 0x262 JUMP JUMPDEST DUP2 PUSH1 0x40 MSTORE DUP4 DUP2 MSTORE PUSH1 0x20 SWAP3 POP DUP7 DUP4 DUP6 DUP9 ADD ADD GT ISZERO PUSH3 0x2EA JUMPI PUSH0 DUP1 REVERT JUMPDEST PUSH0 SWAP2 POP JUMPDEST DUP4 DUP3 LT ISZERO PUSH3 0x30D JUMPI DUP6 DUP3 ADD DUP4 ADD MLOAD DUP2 DUP4 ADD DUP5 ADD MSTORE SWAP1 DUP3 ADD SWAP1 PUSH3 0x2EE JUMP JUMPDEST PUSH0 SWAP4 DUP2 ADD SWAP1 SWAP3 ADD SWAP3 SWAP1 SWAP3 MSTORE SWAP5 SWAP4 POP POP POP POP JUMP JUMPDEST PUSH0 DUP1 PUSH0 DUP1 PUSH0 PUSH1 0xA0 DUP7 DUP9 SUB SLT ISZERO PUSH3 0x335 JUMPI PUSH0 DUP1 REVERT JUMPDEST DUP6 MLOAD PUSH1 0x1 PUSH1 0x1 PUSH1 0x40 SHL SUB DUP1 DUP3 GT ISZERO PUSH3 0x34C JUMPI PUSH0 DUP1 REVERT JUMPDEST PUSH3 0x35A DUP10 DUP4 DUP11 ADD PUSH3 0x276 JUMP JUMPDEST SWAP7 POP PUSH1 0x20 DUP9 ADD MLOAD SWAP2 POP DUP1 DUP3 GT ISZERO PUSH3 0x370 JUMPI PUSH0 DUP1 REVERT JUMPDEST PUSH3 0x37E DUP10 DUP4 DUP11 ADD PUSH3 0x276 JUMP JUMPDEST PUSH1 0x40 DUP10 ADD MLOAD SWAP1 SWAP7 POP SWAP2 POP PUSH1 0x1 PUSH1 0x1 PUSH1 0xA0 SHL SUB DUP3 AND DUP3 EQ PUSH3 0x39D JUMPI PUSH0 DUP1 REVERT JUMPDEST PUSH1 0x60 DUP9 ADD MLOAD PUSH1 0x80 DUP10 ADD MLOAD SWAP3 SWAP6 POP SWAP4 POP DUP1 DUP3 GT ISZERO PUSH3 0x3B9 JUMPI PUSH0 DUP1 REVERT JUMPDEST POP PUSH3 0x3C8 DUP9 DUP3 DUP10 ADD PUSH3 0x276 JUMP JUMPDEST SWAP2 POP POP SWAP3 SWAP6 POP SWAP3 SWAP6 SWAP1 SWAP4 POP JUMP JUMPDEST PUSH1 0x1 DUP2 DUP2 SHR SWAP1 DUP3 AND DUP1 PUSH3 0x3EA JUMPI PUSH1 0x7F DUP3 AND SWAP2 POP JUMPDEST PUSH1 0x20 DUP3 LT DUP2 SUB PUSH3 0x409 JUMPI PUSH4 0x4E487B71 PUSH1 0xE0 SHL PUSH0 MSTORE PUSH1 0x22 PUSH1 0x4 MSTORE PUSH1 0x24 PUSH0 REVERT JUMPDEST POP SWAP2 SWAP1 POP JUMP JUMPDEST PUSH1 0x1F DUP3 GT ISZERO PUSH3 0x45C JUMPI PUSH0 DUP2 DUP2 MSTORE PUSH1 0x20 DUP2 KECCAK256 PUSH1 0x1F DUP6 ADD PUSH1 0x5 SHR DUP2 ADD PUSH1 0x20 DUP7 LT ISZERO PUSH3 0x437 JUMPI POP DUP1 JUMPDEST PUSH1 0x1F DUP6 ADD PUSH1 0x5 SHR DUP3 ADD SWAP2 POP JUMPDEST DUP2 DUP2 LT ISZERO PUSH3 0x458 JUMPI DUP3 DUP2 SSTORE PUSH1 0x1 ADD PUSH3 0x443 JUMP JUMPDEST POP POP POP JUMPDEST POP POP POP JUMP JUMPDEST DUP2 MLOAD PUSH1 0x1 PUSH1 0x1 PUSH1 0x40 SHL SUB DUP2 GT ISZERO PUSH3 0x47D JUMPI PUSH3 0x47D PUSH3 0x262 JUMP JUMPDEST PUSH3 0x495 DUP2 PUSH3 0x48E DUP5 SLOAD PUSH3 0x3D5 JUMP JUMPDEST DUP5 PUSH3 0x40F JUMP JUMPDEST PUSH1 0x20 DUP1 PUSH1 0x1F DUP4 GT PUSH1 0x1 DUP2 EQ PUSH3 0x4CB JUMPI PUSH0 DUP5 ISZERO PUSH3 0x4B3 JUMPI POP DUP6 DUP4 ADD MLOAD JUMPDEST PUSH0 NOT PUSH1 0x3 DUP7 SWAP1 SHL SHR NOT AND PUSH1 0x1 DUP6 SWAP1 SHL OR DUP6 SSTORE PUSH3 0x458 JUMP JUMPDEST PUSH0 DUP6 DUP2 MSTORE PUSH1 0x20 DUP2 KECCAK256 PUSH1 0x1F NOT DUP7 AND SWAP2 JUMPDEST DUP3 DUP2 LT ISZERO PUSH3 0x4FB JUMPI DUP9 DUP7 ADD MLOAD DUP3 SSTORE SWAP5 DUP5 ADD SWAP5 PUSH1 0x1 SWAP1 SWAP2 ADD SWAP1 DUP5 ADD PUSH3 0x4DA JUMP JUMPDEST POP DUP6 DUP3 LT ISZERO PUSH3 0x519 JUMPI DUP8 DUP6 ADD MLOAD PUSH0 NOT PUSH1 0x3 DUP9 SWAP1 SHL PUSH1 0xF8 AND SHR NOT AND DUP2 SSTORE JUMPDEST POP POP POP POP POP PUSH1 0x1 SWAP1 DUP2 SHL ADD SWAP1 SSTORE POP JUMP JUMPDEST PUSH4 0x4E487B71 PUSH1 0xE0 SHL PUSH0 MSTORE PUSH1 0x11 PUSH1 0x4 MSTORE PUSH1 0x24 PUSH0 REVERT JUMPDEST PUSH1 0x1 DUP2 DUP2 JUMPDEST DUP1 DUP6 GT ISZERO PUSH3 0x57D JUMPI DUP2 PUSH0 NOT DIV DUP3 GT ISZERO PUSH3 0x561 JUMPI PUSH3 0x561 PUSH3 0x529 JUMP JUMPDEST DUP1 DUP6 AND ISZERO PUSH3 0x56F JUMPI SWAP2 DUP2 MUL SWAP2 JUMPDEST SWAP4 DUP5 SHR SWAP4 SWAP1 DUP1 MUL SWAP1 PUSH3 0x542 JUMP JUMPDEST POP SWAP3 POP SWAP3 SWAP1 POP JUMP JUMPDEST PUSH0 DUP3 PUSH3 0x595 JUMPI POP PUSH1 0x1 PUSH3 0x632 JUMP JUMPDEST DUP2 PUSH3 0x5A3 JUMPI POP PUSH0 PUSH3 0x632 JUMP JUMPDEST DUP2 PUSH1 0x1 DUP2 EQ PUSH3 0x5BC JUMPI PUSH1 0x2 DUP2 EQ PUSH3 0x5C7 JUMPI PUSH3 0x5E7 JUMP JUMPDEST PUSH1 0x1 SWAP2 POP POP PUSH3 0x632 JUMP JUMPDEST PUSH1 0xFF DUP5 GT ISZERO PUSH3 0x5DB JUMPI PUSH3 0x5DB PUSH3 0x529 JUMP JUMPDEST POP POP PUSH1 0x1 DUP3 SHL PUSH3 0x632 JUMP JUMPDEST POP PUSH1 0x20 DUP4 LT PUSH2 0x133 DUP4 LT AND PUSH1 0x4E DUP5 LT PUSH1 0xB DUP5 LT AND OR ISZERO PUSH3 0x60C JUMPI POP DUP2 DUP2 EXP PUSH3 0x632 JUMP JUMPDEST PUSH3 0x618 DUP4 DUP4 PUSH3 0x53D JUMP JUMPDEST DUP1 PUSH0 NOT DIV DUP3 GT ISZERO PUSH3 0x62E JUMPI PUSH3 0x62E PUSH3 0x529 JUMP JUMPDEST MUL SWAP1 POP JUMPDEST SWAP3 SWAP2 POP POP JUMP JUMPDEST PUSH0 PUSH3 0x648 PUSH1 0xFF DUP5 AND DUP4 PUSH3 0x585 JUMP JUMPDEST SWAP4 SWAP3 POP POP POP JUMP JUMPDEST DUP1 DUP3 MUL DUP2 ISZERO DUP3 DUP3 DIV DUP5 EQ OR PUSH3 0x632 JUMPI PUSH3 0x632 PUSH3 0x529 JUMP JUMPDEST DUP1 DUP3 ADD DUP1 DUP3 GT ISZERO PUSH3 0x632 JUMPI PUSH3 0x632 PUSH3 0x529 JUMP JUMPDEST PUSH1 0x80 MLOAD PUSH1 0xA0 MLOAD PUSH1 0xC0 MLOAD PUSH2 0x851 PUSH3 0x6A9 PUSH0 CODECOPY PUSH0 PUSH2 0x1B3 ADD MSTORE PUSH0 PUSH2 0x17D ADD MSTORE PUSH0 PUSH1 0xD4 ADD MSTORE PUSH2 0x851 PUSH0 RETURN INVALID PUSH1 0x80 PUSH1 0x40 MSTORE CALLVALUE DUP1 ISZERO PUSH2 0xF JUMPI PUSH0 DUP1 REVERT JUMPDEST POP PUSH1 0x4 CALLDATASIZE LT PUSH2 0xCB JUMPI PUSH0 CALLDATALOAD PUSH1 0xE0 SHR DUP1 PUSH4 0x29BA7BB2 GT PUSH2 0x88 JUMPI DUP1 PUSH4 0x70A08231 GT PUSH2 0x63 JUMPI DUP1 PUSH4 0x70A08231 EQ PUSH2 0x1D5 JUMPI DUP1 PUSH4 0x95D89B41 EQ PUSH2 0x1FD JUMPI DUP1 PUSH4 0xA9059CBB EQ PUSH2 0x205 JUMPI DUP1 PUSH4 0xDD62ED3E EQ PUSH2 0x218 JUMPI PUSH0 DUP1 REVERT JUMPDEST DUP1 PUSH4 0x29BA7BB2 EQ PUSH2 0x178 JUMPI DUP1 PUSH4 0x313CE567 EQ PUSH2 0x19F JUMPI DUP1 PUSH4 0x3FF2AD7C EQ PUSH2 0x1AE JUMPI PUSH0 DUP1 REVERT JUMPDEST DUP1 PUSH4 0x2D05D3F EQ PUSH2 0xCF JUMPI DUP1 PUSH4 0x3EE438C EQ PUSH2 0x113 JUMPI DUP1 PUSH4 0x6FDDE03 EQ PUSH2 0x128 JUMPI DUP1 PUSH4 0x95EA7B3 EQ PUSH2 0x130 JUMPI DUP1 PUSH4 0x18160DDD EQ PUSH2 0x153 JUMPI DUP1 PUSH4 0x23B872DD EQ PUSH2 0x165 JUMPI JUMPDEST PUSH0 DUP1 REVERT JUMPDEST PUSH2 0xF6 PUSH32 0x0 DUP2 JUMP JUMPDEST PUSH1 0x40 MLOAD PUSH1 0x1 PUSH1 0x1 PUSH1 0xA0 SHL SUB SWAP1 SWAP2 AND DUP2 MSTORE PUSH1 0x20 ADD JUMPDEST PUSH1 0x40 MLOAD DUP1 SWAP2 SUB SWAP1 RETURN JUMPDEST PUSH2 0x11B PUSH2 0x250 JUMP JUMPDEST PUSH1 0x40 MLOAD PUSH2 0x10A SWAP2 SWAP1 PUSH2 0x6AC JUMP JUMPDEST PUSH2 0x11B PUSH2 0x2DC JUMP JUMPDEST PUSH2 0x143 PUSH2 0x13E CALLDATASIZE PUSH1 0x4 PUSH2 0x712 JUMP JUMPDEST PUSH2 0x36C JUMP JUMPDEST PUSH1 0x40 MLOAD SWAP1 ISZERO ISZERO DUP2 MSTORE PUSH1 0x20 ADD PUSH2 0x10A JUMP JUMPDEST PUSH1 0x2 SLOAD JUMPDEST PUSH1 0x40 MLOAD SWAP1 DUP2 MSTORE PUSH1 0x20 ADD PUSH2 0x10A JUMP JUMPDEST PUSH2 0x143 PUSH2 0x173 CALLDATASIZE PUSH1 0x4 PUSH2 0x73A JUMP JUMPDEST PUSH2 0x385 JUMP JUMPDEST PUSH2 0xF6 PUSH32 0x0 DUP2 JUMP JUMPDEST PUSH1 0x40 MLOAD PUSH1 0x12 DUP2 MSTORE PUSH1 0x20 ADD PUSH2 0x10A JUMP JUMPDEST PUSH2 0x157 PUSH32 0x0 DUP2 JUMP JUMPDEST PUSH2 0x157 PUSH2 0x1E3 CALLDATASIZE PUSH1 0x4 PUSH2 0x773 JUMP JUMPDEST PUSH1 0x1 PUSH1 0x1 PUSH1 0xA0 SHL SUB AND PUSH0 SWAP1 DUP2 MSTORE PUSH1 0x20 DUP2 SWAP1 MSTORE PUSH1 0x40 SWAP1 KECCAK256 SLOAD SWAP1 JUMP JUMPDEST PUSH2 0x11B PUSH2 0x3A8 JUMP JUMPDEST PUSH2 0x143 PUSH2 0x213 CALLDATASIZE PUSH1 0x4 PUSH2 0x712 JUMP JUMPDEST PUSH2 0x3B7 JUMP JUMPDEST PUSH2 0x157 PUSH2 0x226 CALLDATASIZE PUSH1 0x4 PUSH2 0x793 JUMP JUMPDEST PUSH1 0x1 PUSH1 0x1 PUSH1 0xA0 SHL SUB SWAP2 DUP3 AND PUSH0 SWAP1 DUP2 MSTORE PUSH1 0x1 PUSH1 0x20 SWAP1 DUP2 MSTORE PUSH1 0x40 DUP1 DUP4 KECCAK256 SWAP4 SWAP1 SWAP5 AND DUP3 MSTORE SWAP2 SWAP1 SWAP2 MSTORE KECCAK256 SLOAD SWAP1 JUMP JUMPDEST PUSH1 0x5 DUP1 SLOAD PUSH2 0x25D SWAP1 PUSH2 0x7C4 JUMP JUMPDEST DUP1 PUSH1 0x1F ADD PUSH1 0x20 DUP1 SWAP2 DIV MUL PUSH1 0x20 ADD PUSH1 0x40 MLOAD SWAP1 DUP2 ADD PUSH1 0x40 MSTORE DUP1 SWAP3 SWAP2 SWAP1 DUP2 DUP2 MSTORE PUSH1 0x20 ADD DUP3 DUP1 SLOAD PUSH2 0x289 SWAP1 PUSH2 0x7C4 JUMP JUMPDEST DUP1 ISZERO PUSH2 0x2D4 JUMPI DUP1 PUSH1 0x1F LT PUSH2 0x2AB JUMPI PUSH2 0x100 DUP1 DUP4 SLOAD DIV MUL DUP4 MSTORE SWAP2 PUSH1 0x20 ADD SWAP2 PUSH2 0x2D4 JUMP JUMPDEST DUP3 ADD SWAP2 SWAP1 PUSH0 MSTORE PUSH1 0x20 PUSH0 KECCAK256 SWAP1 JUMPDEST DUP2 SLOAD DUP2 MSTORE SWAP1 PUSH1 0x1 ADD SWAP1 PUSH1 0x20 ADD DUP1 DUP4 GT PUSH2 0x2B7 JUMPI DUP3 SWAP1 SUB PUSH1 0x1F AND DUP3 ADD SWAP2 JUMPDEST POP POP POP POP POP DUP2 JUMP JUMPDEST PUSH1 0x60 PUSH1 0x3 DUP1 SLOAD PUSH2 0x2EB SWAP1 PUSH2 0x7C4 JUMP JUMPDEST DUP1 PUSH1 0x1F ADD PUSH1 0x20 DUP1 SWAP2 DIV MUL PUSH1 0x20 ADD PUSH1 0x40 MLOAD SWAP1 DUP2 ADD PUSH1 0x40 MSTORE DUP1 SWAP3 SWAP2 SWAP1 DUP2 DUP2 MSTORE PUSH1 0x20 ADD DUP3 DUP1 SLOAD PUSH2 0x317 SWAP1 PUSH2 0x7C4 JUMP JUMPDEST DUP1 ISZERO PUSH2 0x362 JUMPI DUP1 PUSH1 0x1F LT PUSH2 0x339 JUMPI PUSH2 0x100 DUP1 DUP4 SLOAD DIV MUL DUP4 MSTORE SWAP2 PUSH1 0x20 ADD SWAP2 PUSH2 0x362 JUMP JUMPDEST DUP3 ADD SWAP2 SWAP1 PUSH0 MSTORE PUSH1 0x20 PUSH0 KECCAK256 SWAP1 JUMPDEST DUP2 SLOAD DUP2 MSTORE SWAP1 PUSH1 0x1 ADD SWAP1 PUSH1 0x20 ADD DUP1 DUP4 GT PUSH2 0x345 JUMPI DUP3 SWAP1 SUB PUSH1 0x1F AND DUP3 ADD SWAP2 JUMPDEST POP POP POP POP POP SWAP1 POP SWAP1 JUMP JUMPDEST PUSH0 CALLER PUSH2 0x379 DUP2 DUP6 DUP6 PUSH2 0x3C4 JUMP JUMPDEST PUSH1 0x1 SWAP2 POP POP JUMPDEST SWAP3 SWAP2 POP POP JUMP JUMPDEST PUSH0 CALLER PUSH2 0x392 DUP6 DUP3 DUP6 PUSH2 0x3D6 JUMP JUMPDEST PUSH2 0x39D DUP6 DUP6 DUP6 PUSH2 0x457 JUMP JUMPDEST POP PUSH1 0x1 SWAP5 SWAP4 POP POP POP POP JUMP JUMPDEST PUSH1 0x60 PUSH1 0x4 DUP1 SLOAD PUSH2 0x2EB SWAP1 PUSH2 0x7C4 JUMP JUMPDEST PUSH0 CALLER PUSH2 0x379 DUP2 DUP6 DUP6 PUSH2 0x457 JUMP JUMPDEST PUSH2 0x3D1 DUP4 DUP4 DUP4 PUSH1 0x1 PUSH2 0x4B4 JUMP JUMPDEST POP POP POP JUMP JUMPDEST PUSH1 0x1 PUSH1 0x1 PUSH1 0xA0 SHL SUB DUP4 DUP2 AND PUSH0 SWAP1 DUP2 MSTORE PUSH1 0x1 PUSH1 0x20 SWAP1 DUP2 MSTORE PUSH1 0x40 DUP1 DUP4 KECCAK256 SWAP4 DUP7 AND DUP4 MSTORE SWAP3 SWAP1 MSTORE KECCAK256 SLOAD PUSH0 NOT DUP2 LT ISZERO PUSH2 0x451 JUMPI DUP2 DUP2 LT ISZERO PUSH2 0x443 JUMPI PUSH1 0x40 MLOAD PUSH4 0x7DC7A0D9 PUSH1 0xE1 SHL DUP2 MSTORE PUSH1 0x1 PUSH1 0x1 PUSH1 0xA0 SHL SUB DUP5 AND PUSH1 0x4 DUP3 ADD MSTORE PUSH1 0x24 DUP2 ADD DUP3 SWAP1 MSTORE PUSH1 0x44 DUP2 ADD DUP4 SWAP1 MSTORE PUSH1 0x64 ADD JUMPDEST PUSH1 0x40 MLOAD DUP1 SWAP2 SUB SWAP1 REVERT JUMPDEST PUSH2 0x451 DUP5 DUP5 DUP5 DUP5 SUB PUSH0 PUSH2 0x4B4 JUMP JUMPDEST POP POP POP POP JUMP JUMPDEST PUSH1 0x1 PUSH1 0x1 PUSH1 0xA0 SHL SUB DUP4 AND PUSH2 0x480 JUMPI PUSH1 0x40 MLOAD PUSH4 0x4B637E8F PUSH1 0xE1 SHL DUP2 MSTORE PUSH0 PUSH1 0x4 DUP3 ADD MSTORE PUSH1 0x24 ADD PUSH2 0x43A JUMP JUMPDEST PUSH1 0x1 PUSH1 0x1 PUSH1 0xA0 SHL SUB DUP3 AND PUSH2 0x4A9 JUMPI PUSH1 0x40 MLOAD PUSH4 0xEC442F05 PUSH1 0xE0 SHL DUP2 MSTORE PUSH0 PUSH1 0x4 DUP3 ADD MSTORE PUSH1 0x24 ADD PUSH2 0x43A JUMP JUMPDEST PUSH2 0x3D1 DUP4 DUP4 DUP4 PUSH2 0x586 JUMP JUMPDEST PUSH1 0x1 PUSH1 0x1 PUSH1 0xA0 SHL SUB DUP5 AND PUSH2 0x4DD JUMPI PUSH1 0x40 MLOAD PUSH4 0xE602DF05 PUSH1 0xE0 SHL DUP2 MSTORE PUSH0 PUSH1 0x4 DUP3 ADD MSTORE PUSH1 0x24 ADD PUSH2 0x43A JUMP JUMPDEST PUSH1 0x1 PUSH1 0x1 PUSH1 0xA0 SHL SUB DUP4 AND PUSH2 0x506 JUMPI PUSH1 0x40 MLOAD PUSH4 0x4A1406B1 PUSH1 0xE1 SHL DUP2 MSTORE PUSH0 PUSH1 0x4 DUP3 ADD MSTORE PUSH1 0x24 ADD PUSH2 0x43A JUMP JUMPDEST PUSH1 0x1 PUSH1 0x1 PUSH1 0xA0 SHL SUB DUP1 DUP6 AND PUSH0 SWAP1 DUP2 MSTORE PUSH1 0x1 PUSH1 0x20 SWAP1 DUP2 MSTORE PUSH1 0x40 DUP1 DUP4 KECCAK256 SWAP4 DUP8 AND DUP4 MSTORE SWAP3 SWAP1 MSTORE KECCAK256 DUP3 SWAP1 SSTORE DUP1 ISZERO PUSH2 0x451 JUMPI DUP3 PUSH1 0x1 PUSH1 0x1 PUSH1 0xA0 SHL SUB AND DUP5 PUSH1 0x1 PUSH1 0x1 PUSH1 0xA0 SHL SUB AND PUSH32 0x8C5BE1E5EBEC7D5BD14F71427D1E84F3DD0314C0F7B2291E5B200AC8C7C3B925 DUP5 PUSH1 0x40 MLOAD PUSH2 0x578 SWAP2 DUP2 MSTORE PUSH1 0x20 ADD SWAP1 JUMP JUMPDEST PUSH1 0x40 MLOAD DUP1 SWAP2 SUB SWAP1 LOG3 POP POP POP POP JUMP JUMPDEST PUSH1 0x1 PUSH1 0x1 PUSH1 0xA0 SHL SUB DUP4 AND PUSH2 0x5B0 JUMPI DUP1 PUSH1 0x2 PUSH0 DUP3 DUP3 SLOAD PUSH2 0x5A5 SWAP2 SWAP1 PUSH2 0x7FC JUMP JUMPDEST SWAP1 SWAP2 SSTORE POP PUSH2 0x620 SWAP1 POP JUMP JUMPDEST PUSH1 0x1 PUSH1 0x1 PUSH1 0xA0 SHL SUB DUP4 AND PUSH0 SWAP1 DUP2 MSTORE PUSH1 0x20 DUP2 SWAP1 MSTORE PUSH1 0x40 SWAP1 KECCAK256 SLOAD DUP2 DUP2 LT ISZERO PUSH2 0x602 JUMPI PUSH1 0x40 MLOAD PUSH4 0x391434E3 PUSH1 0xE2 SHL DUP2 MSTORE PUSH1 0x1 PUSH1 0x1 PUSH1 0xA0 SHL SUB DUP6 AND PUSH1 0x4 DUP3 ADD MSTORE PUSH1 0x24 DUP2 ADD DUP3 SWAP1 MSTORE PUSH1 0x44 DUP2 ADD DUP4 SWAP1 MSTORE PUSH1 0x64 ADD PUSH2 0x43A JUMP JUMPDEST PUSH1 0x1 PUSH1 0x1 PUSH1 0xA0 SHL SUB DUP5 AND PUSH0 SWAP1 DUP2 MSTORE PUSH1 0x20 DUP2 SWAP1 MSTORE PUSH1 0x40 SWAP1 KECCAK256 SWAP1 DUP3 SWAP1 SUB SWAP1 SSTORE JUMPDEST PUSH1 0x1 PUSH1 0x1 PUSH1 0xA0 SHL SUB DUP3 AND PUSH2 0x63C JUMPI PUSH1 0x2 DUP1 SLOAD DUP3 SWAP1 SUB SWAP1 SSTORE PUSH2 0x65A JUMP JUMPDEST PUSH1 0x1 PUSH1 0x1 PUSH1 0xA0 SHL SUB DUP3 AND PUSH0 SWAP1 DUP2 MSTORE PUSH1 0x20 DUP2 SWAP1 MSTORE PUSH1 0x40 SWAP1 KECCAK256 DUP1 SLOAD DUP3 ADD SWAP1 SSTORE JUMPDEST DUP2 PUSH1 0x1 PUSH1 0x1 PUSH1 0xA0 SHL SUB AND DUP4 PUSH1 0x1 PUSH1 0x1 PUSH1 0xA0 SHL SUB AND PUSH32 0xDDF252AD1BE2C89B69C2B068FC378DAA952BA7F163C4A11628F55A4DF523B3EF DUP4 PUSH1 0x40 MLOAD PUSH2 0x69F SWAP2 DUP2 MSTORE PUSH1 0x20 ADD SWAP1 JUMP JUMPDEST PUSH1 0x40 MLOAD DUP1 SWAP2 SUB SWAP1 LOG3 POP POP POP JUMP JUMPDEST PUSH0 PUSH1 0x20 DUP1 DUP4 MSTORE DUP4 MLOAD DUP1 DUP3 DUP6 ADD MSTORE PUSH0 JUMPDEST DUP2 DUP2 LT ISZERO PUSH2 0x6D7 JUMPI DUP6 DUP2 ADD DUP4 ADD MLOAD DUP6 DUP3 ADD PUSH1 0x40 ADD MSTORE DUP3 ADD PUSH2 0x6BB JUMP JUMPDEST POP PUSH0 PUSH1 0x40 DUP3 DUP7 ADD ADD MSTORE PUSH1 0x40 PUSH1 0x1F NOT PUSH1 0x1F DUP4 ADD AND DUP6 ADD ADD SWAP3 POP POP POP SWAP3 SWAP2 POP POP JUMP JUMPDEST DUP1 CALLDATALOAD PUSH1 0x1 PUSH1 0x1 PUSH1 0xA0 SHL SUB DUP2 AND DUP2 EQ PUSH2 0x70D JUMPI PUSH0 DUP1 REVERT JUMPDEST SWAP2 SWAP1 POP JUMP JUMPDEST PUSH0 DUP1 PUSH1 0x40 DUP4 DUP6 SUB SLT ISZERO PUSH2 0x723 JUMPI PUSH0 DUP1 REVERT JUMPDEST PUSH2 0x72C DUP4 PUSH2 0x6F7 JUMP JUMPDEST SWAP5 PUSH1 0x20 SWAP4 SWAP1 SWAP4 ADD CALLDATALOAD SWAP4 POP POP POP JUMP JUMPDEST PUSH0 DUP1 PUSH0 PUSH1 0x60 DUP5 DUP7 SUB SLT ISZERO PUSH2 0x74C JUMPI PUSH0 DUP1 REVERT JUMPDEST PUSH2 0x755 DUP5 PUSH2 0x6F7 JUMP JUMPDEST SWAP3 POP PUSH2 0x763 PUSH1 0x20 DUP6 ADD PUSH2 0x6F7 JUMP JUMPDEST SWAP2 POP PUSH1 0x40 DUP5 ADD CALLDATALOAD SWAP1 POP SWAP3 POP SWAP3 POP SWAP3 JUMP JUMPDEST PUSH0 PUSH1 0x20 DUP3 DUP5 SUB SLT ISZERO PUSH2 0x783 JUMPI PUSH0 DUP1 REVERT JUMPDEST PUSH2 0x78C DUP3 PUSH2 0x6F7 JUMP JUMPDEST SWAP4 SWAP3 POP POP POP JUMP JUMPDEST PUSH0 DUP1 PUSH1 0x40 DUP4 DUP6 SUB SLT ISZERO PUSH2 0x7A4 JUMPI PUSH0 DUP1 REVERT JUMPDEST PUSH2 0x7AD DUP4 PUSH2 0x6F7 JUMP JUMPDEST SWAP2 POP PUSH2 0x7BB PUSH1 0x20 DUP5 ADD PUSH2 0x6F7 JUMP JUMPDEST SWAP1 POP SWAP3 POP SWAP3 SWAP1 POP JUMP JUMPDEST PUSH1 0x1 DUP2 DUP2 SHR SWAP1 DUP3 AND DUP1 PUSH2 0x7D8 JUMPI PUSH1 0x7F DUP3 AND SWAP2 POP JUMPDEST PUSH1 0x20 DUP3 LT DUP2 SUB PUSH2 0x7F6 JUMPI PUSH4 0x4E487B71 PUSH1 0xE0 SHL PUSH0 MSTORE PUSH1 0x22 PUSH1 0x4 MSTORE PUSH1 0x24 PUSH0 REVERT JUMPDEST POP SWAP2 SWAP1 POP JUMP JUMPDEST DUP1 DUP3 ADD DUP1 DUP3 GT ISZERO PUSH2 0x37F JUMPI PUSH4 0x4E487B71 PUSH1 0xE0 SHL PUSH0 MSTORE PUSH1 0x11 PUSH1 0x4 MSTORE PUSH1 0x24 PUSH0 REVERT INVALID LOG2 PUSH5 0x6970667358 0x22 SLT KECCAK256 JUMPDEST 0x27 0x4B SSTORE PUSH3 0xFDC6ED EQ SHR GT 0xD7 0x24 0x21 0xD7 PUSH18 0x1EF02AA8796C166ECF4CF759FB15D9846473 PUSH16 0x6C63430008140033A264697066735822 SLT KECCAK256 0xC9 DUP8 SLT 0xDE 0xDA CREATE2 LOG3 DUP16 SSTORE 0xBE CODESIZE 0xB5 SWAP10 DUP4 0xEA LOG0 CALLDATASIZE 0x4F DUP15 SWAP6 MSTORE8 CODESIZE 0xE2 PUSH32 0x6C7AC17868A1A5ED64736F6C6343000814003300000000000000000000000000 "},"methodIdentifiers":{"createToken(string,string,uint256,address,string)":"a1c1b328","getTokensByCreator(address)":"d5c71275"}}}}}