{
  "_format": "hh3-artifact-1",
  "contractName": "WalaTokenFactory",
  "sourceName": "contracts/WalaTokenFactory.sol",
  "abi": [
    {
      "inputs": [],
      "name": "EmptyName",
      "type": "error"
    },
    {
      "inputs": [],
      "name": "EmptySymbol",
      "type": "error"
    },
    {
      "inputs": [],
      "name": "InvalidOwner",
      "type": "error"
    },
    {
      "inputs": [],
      "name": "InvalidSupply",
      "type": "error"
    },
    {
      "anonymous": false,
      "inputs": [
        {
          "indexed": true,
          "internalType": "address",
          "name": "creator",
          "type": "address"
        },
        {
          "indexed": true,
          "internalType": "address",
          "name": "owner",
          "type": "address"
        },
        {
          "indexed": true,
          "internalType": "address",
          "name": "token",
          "type": "address"
        },
        {
          "indexed": false,
          "internalType": "string",
          "name": "name",
          "type": "string"
        },
        {
          "indexed": false,
          "internalType": "string",
          "name": "symbol",
          "type": "string"
        },
        {
          "indexed": false,
          "internalType": "uint256",
          "name": "wholeSupply",
          "type": "uint256"
        },
        {
          "indexed": false,
          "internalType": "string",
          "name": "metadataURI",
          "type": "string"
        }
      ],
      "name": "TokenCreated",
      "type": "event"
    },
    {
      "inputs": [
        {
          "internalType": "string",
          "name": "name_",
          "type": "string"
        },
        {
          "internalType": "string",
          "name": "symbol_",
          "type": "string"
        },
        {
          "internalType": "uint256",
          "name": "wholeSupply_",
          "type": "uint256"
        },
        {
          "internalType": "address",
          "name": "owner_",
          "type": "address"
        },
        {
          "internalType": "string",
          "name": "metadataURI_",
          "type": "string"
        }
      ],
      "name": "createToken",
      "outputs": [
        {
          "internalType": "address",
          "name": "token",
          "type": "address"
        }
      ],
      "stateMutability": "nonpayable",
      "type": "function"
    },
    {
      "inputs": [
        {
          "internalType": "address",
          "name": "creator_",
          "type": "address"
        }
      ],
      "name": "getTokensByCreator",
      "outputs": [
        {
          "internalType": "address[]",
          "name": "",
          "type": "address[]"
        }
      ],
      "stateMutability": "view",
      "type": "function"
    }
  ],
  "bytecode": "0x608060405234801561000f575f80fd5b506114278061001d5f395ff3fe608060405234801562000010575f80fd5b506004361062000038575f3560e01c8063a1c1b328146200003c578063d5c712751462000070575b5f80fd5b620000536200004d366004620002e8565b62000096565b6040516001600160a01b0390911681526020015b60405180910390f35b6200008762000081366004620003a3565b62000203565b604051620000679190620003c6565b5f878103620000b857604051632ef1310560e01b815260040160405180910390fd5b5f869003620000da57604051630cc613fb60e11b815260040160405180910390fd5b6001600160a01b03841662000102576040516349e27cff60e01b815260040160405180910390fd5b845f0362000123576040516315ae672760e01b815260040160405180910390fd5b5f89898989888a89896040516200013a9062000276565b6200014d9897969594939291906200043c565b604051809103905ff08015801562000167573d5f803e3d5ffd5b50335f818152602081815260408083208054600181018255908452919092200180546001600160a01b0319166001600160a01b038581169182179092559151939550859450909290881691907f50345850dc9ebe5553d1d7a9c544ee2b24bb2b1a77c0558b15d6a444f901d39190620001ee908f908f908f908f908f908e908e90620004a2565b60405180910390a45098975050505050505050565b6001600160a01b0381165f90815260208181526040918290208054835181840281018401909452808452606093928301828280156200026a57602002820191905f5260205f20905b81546001600160a01b031681526001909101906020018083116200024b575b50505050509050919050565b610efa80620004f883390190565b5f8083601f84011262000295575f80fd5b50813567ffffffffffffffff811115620002ad575f80fd5b602083019150836020828501011115620002c5575f80fd5b9250929050565b80356001600160a01b0381168114620002e3575f80fd5b919050565b5f805f805f805f8060a0898b03121562000300575f80fd5b883567ffffffffffffffff8082111562000318575f80fd5b620003268c838d0162000284565b909a50985060208b01359150808211156200033f575f80fd5b6200034d8c838d0162000284565b909850965060408b013595508691506200036a60608c01620002cc565b945060808b013591508082111562000380575f80fd5b506200038f8b828c0162000284565b999c989b5096995094979396929594505050565b5f60208284031215620003b4575f80fd5b620003bf82620002cc565b9392505050565b602080825282518282018190525f9190848201906040850190845b81811015620004085783516001600160a01b031683529284019291840191600101620003e1565b50909695505050505050565b81835281816020850137505f828201602090810191909152601f909101601f19169091010190565b60a081525f6200045160a083018a8c62000414565b82810360208401526200046681898b62000414565b6001600160a01b038816604085015260608401879052838103608085015290506200049381858762000414565b9b9a5050505050505050505050565b608081525f620004b760808301898b62000414565b8281036020840152620004cc81888a62000414565b90508560408401528281036060840152620004e981858762000414565b9a995050505050505050505056fe60e060405234801562000010575f80fd5b5060405162000efa38038062000efa833981016040819052620000339162000320565b8484600362000043838262000461565b50600462000052828262000461565b5050506001600160a01b0383166200007d576040516349e27cff60e01b815260040160405180910390fd5b815f036200009e576040516315ae672760e01b815260040160405180910390fd5b336080526001600160a01b03831660a05260c08290526005620000c2828262000461565b50620000e883620000d66012600a62000638565b620000e290856200064f565b620000f3565b50505050506200067f565b6001600160a01b038216620001225760405163ec442f0560e01b81525f60048201526024015b60405180910390fd5b6200012f5f838362000133565b5050565b6001600160a01b03831662000161578060025f82825462000155919062000669565b90915550620001d39050565b6001600160a01b0383165f9081526020819052604090205481811015620001b55760405163391434e360e21b81526001600160a01b0385166004820152602481018290526044810183905260640162000119565b6001600160a01b0384165f9081526020819052604090209082900390555b6001600160a01b038216620001f1576002805482900390556200020f565b6001600160a01b0382165f9081526020819052604090208054820190555b816001600160a01b0316836001600160a01b03167fddf252ad1be2c89b69c2b068fc378daa952ba7f163c4a11628f55a4df523b3ef836040516200025591815260200190565b60405180910390a3505050565b634e487b7160e01b5f52604160045260245ffd5b5f82601f83011262000286575f80fd5b81516001600160401b0380821115620002a357620002a362000262565b604051601f8301601f19908116603f01168101908282118183101715620002ce57620002ce62000262565b81604052838152602092508683858801011115620002ea575f80fd5b5f91505b838210156200030d5785820183015181830184015290820190620002ee565b5f93810190920192909252949350505050565b5f805f805f60a0868803121562000335575f80fd5b85516001600160401b03808211156200034c575f80fd5b6200035a89838a0162000276565b9650602088015191508082111562000370575f80fd5b6200037e89838a0162000276565b604089015190965091506001600160a01b03821682146200039d575f80fd5b60608801516080890151929550935080821115620003b9575f80fd5b50620003c88882890162000276565b9150509295509295909350565b600181811c90821680620003ea57607f821691505b6020821081036200040957634e487b7160e01b5f52602260045260245ffd5b50919050565b601f8211156200045c575f81815260208120601f850160051c81016020861015620004375750805b601f850160051c820191505b81811015620004585782815560010162000443565b5050505b505050565b81516001600160401b038111156200047d576200047d62000262565b62000495816200048e8454620003d5565b846200040f565b602080601f831160018114620004cb575f8415620004b35750858301515b5f19600386901b1c1916600185901b17855562000458565b5f85815260208120601f198616915b82811015620004fb57888601518255948401946001909101908401620004da565b50858210156200051957878501515f19600388901b60f8161c191681555b5050505050600190811b01905550565b634e487b7160e01b5f52601160045260245ffd5b600181815b808511156200057d57815f190482111562000561576200056162000529565b808516156200056f57918102915b93841c939080029062000542565b509250929050565b5f82620005955750600162000632565b81620005a357505f62000632565b8160018114620005bc5760028114620005c757620005e7565b600191505062000632565b60ff841115620005db57620005db62000529565b50506001821b62000632565b5060208310610133831016604e8410600b84101617156200060c575081810a62000632565b6200061883836200053d565b805f19048211156200062e576200062e62000529565b0290505b92915050565b5f6200064860ff84168362000585565b9392505050565b808202811582820484141762000632576200063262000529565b8082018082111562000632576200063262000529565b60805160a05160c051610851620006a95f395f6101b301525f61017d01525f60d401526108515ff3fe608060405234801561000f575f80fd5b50600436106100cb575f3560e01c806329ba7bb21161008857806370a082311161006357806370a08231146101d557806395d89b41146101fd578063a9059cbb14610205578063dd62ed3e14610218575f80fd5b806329ba7bb214610178578063313ce5671461019f5780633ff2ad7c146101ae575f80fd5b806302d05d3f146100cf57806303ee438c1461011357806306fdde0314610128578063095ea7b31461013057806318160ddd1461015357806323b872dd14610165575b5f80fd5b6100f67f000000000000000000000000000000000000000000000000000000000000000081565b6040516001600160a01b0390911681526020015b60405180910390f35b61011b610250565b60405161010a91906106ac565b61011b6102dc565b61014361013e366004610712565b61036c565b604051901515815260200161010a565b6002545b60405190815260200161010a565b61014361017336600461073a565b610385565b6100f67f000000000000000000000000000000000000000000000000000000000000000081565b6040516012815260200161010a565b6101577f000000000000000000000000000000000000000000000000000000000000000081565b6101576101e3366004610773565b6001600160a01b03165f9081526020819052604090205490565b61011b6103a8565b610143610213366004610712565b6103b7565b610157610226366004610793565b6001600160a01b039182165f90815260016020908152604080832093909416825291909152205490565b6005805461025d906107c4565b80601f0160208091040260200160405190810160405280929190818152602001828054610289906107c4565b80156102d45780601f106102ab576101008083540402835291602001916102d4565b820191905f5260205f20905b8154815290600101906020018083116102b757829003601f168201915b505050505081565b6060600380546102eb906107c4565b80601f0160208091040260200160405190810160405280929190818152602001828054610317906107c4565b80156103625780601f1061033957610100808354040283529160200191610362565b820191905f5260205f20905b81548152906001019060200180831161034557829003601f168201915b5050505050905090565b5f336103798185856103c4565b60019150505b92915050565b5f336103928582856103d6565b61039d858585610457565b506001949350505050565b6060600480546102eb906107c4565b5f33610379818585610457565b6103d183838360016104b4565b505050565b6001600160a01b038381165f908152600160209081526040808320938616835292905220545f19811015610451578181101561044357604051637dc7a0d960e11b81526001600160a01b038416600482015260248101829052604481018390526064015b60405180910390fd5b61045184848484035f6104b4565b50505050565b6001600160a01b03831661048057604051634b637e8f60e11b81525f600482015260240161043a565b6001600160a01b0382166104a95760405163ec442f0560e01b81525f600482015260240161043a565b6103d1838383610586565b6001600160a01b0384166104dd5760405163e602df0560e01b81525f600482015260240161043a565b6001600160a01b03831661050657604051634a1406b160e11b81525f600482015260240161043a565b6001600160a01b038085165f908152600160209081526040808320938716835292905220829055801561045157826001600160a01b0316846001600160a01b03167f8c5be1e5ebec7d5bd14f71427d1e84f3dd0314c0f7b2291e5b200ac8c7c3b9258460405161057891815260200190565b60405180910390a350505050565b6001600160a01b0383166105b0578060025f8282546105a591906107fc565b909155506106209050565b6001600160a01b0383165f90815260208190526040902054818110156106025760405163391434e360e21b81526001600160a01b0385166004820152602481018290526044810183905260640161043a565b6001600160a01b0384165f9081526020819052604090209082900390555b6001600160a01b03821661063c5760028054829003905561065a565b6001600160a01b0382165f9081526020819052604090208054820190555b816001600160a01b0316836001600160a01b03167fddf252ad1be2c89b69c2b068fc378daa952ba7f163c4a11628f55a4df523b3ef8360405161069f91815260200190565b60405180910390a3505050565b5f6020808352835180828501525f5b818110156106d7578581018301518582016040015282016106bb565b505f604082860101526040601f19601f8301168501019250505092915050565b80356001600160a01b038116811461070d575f80fd5b919050565b5f8060408385031215610723575f80fd5b61072c836106f7565b946020939093013593505050565b5f805f6060848603121561074c575f80fd5b610755846106f7565b9250610763602085016106f7565b9150604084013590509250925092565b5f60208284031215610783575f80fd5b61078c826106f7565b9392505050565b5f80604083850312156107a4575f80fd5b6107ad836106f7565b91506107bb602084016106f7565b90509250929050565b600181811c908216806107d857607f821691505b6020821081036107f657634e487b7160e01b5f52602260045260245ffd5b50919050565b8082018082111561037f57634e487b7160e01b5f52601160045260245ffdfea26469706673582212205b274b5562fdc6ed141c11d72421d7711ef02aa8796c166ecf4cf759fb15d98464736f6c63430008140033a2646970667358221220c98712dedaf5a38f55be38b59983eaa0364f8e955338e27f6c7ac17868a1a5ed64736f6c63430008140033",
  "linkReferences": {},
  "deployedLinkReferences": {},
  "immutableReferences": {},
  "inputSourceName": "project/contracts/WalaTokenFactory.sol",
  "buildInfoId": "solc-0_8_20-a673bd6a9b72dbde78c40a437efb52f14bc76ff2"
}